{"contracts/Staking.sol":{"Staking":{"abi":[{"inputs":[{"internalType":"address","name":"tokenAddress","type":"address"}],"stateMutability":"nonpayable","type":"constructor"},{"anonymous":false,"inputs":[{"indexed":true,"internalType":"address","name":"user","type":"address"},{"indexed":false,"internalType":"uint256","name":"amount","type":"uint256"}],"name":"RewardsClaimed","type":"event"},{"anonymous":false,"inputs":[{"indexed":true,"internalType":"address","name":"user","type":"address"},{"indexed":false,"internalType":"uint256","name":"amount","type":"uint256"}],"name":"Staked","type":"event"},{"anonymous":false,"inputs":[{"indexed":true,"internalType":"address","name":"user","type":"address"},{"indexed":false,"internalType":"uint256","name":"amount","type":"uint256"}],"name":"Unstaked","type":"event"},{"inputs":[],"name":"APR_RATE","outputs":[{"internalType":"uint256","name":"","type":"uint256"}],"stateMutability":"view","type":"function"},{"inputs":[],"name":"MIN_STAKE_AMOUNT","outputs":[{"internalType":"uint256","name":"","type":"uint256"}],"stateMutability":"view","type":"function"},{"inputs":[],"name":"SECONDS_IN_YEAR","outputs":[{"internalType":"uint256","name":"","type":"uint256"}],"stateMutability":"view","type":"function"},{"inputs":[{"internalType":"address","name":"user","type":"address"}],"name":"calculateRewards","outputs":[{"internalType":"uint256","name":"","type":"uint256"}],"stateMutability":"view","type":"function"},{"inputs":[],"name":"claimRewards","outputs":[],"stateMutability":"nonpayable","type":"function"},{"inputs":[],"name":"getAPR","outputs":[{"internalType":"uint256","name":"","type":"uint256"}],"stateMutability":"pure","type":"function"},{"inputs":[{"internalType":"address","name":"user","type":"address"}],"name":"getStakeInfo","outputs":[{"internalType":"uint256","name":"stakedAmount","type":"uint256"},{"internalType":"uint256","name":"stakedAt","type":"uint256"},{"internalType":"uint256","name":"pendingRewards","type":"uint256"},{"internalType":"uint256","name":"totalRewards","type":"uint256"}],"stateMutability":"view","type":"function"},{"inputs":[{"internalType":"uint256","name":"amount","type":"uint256"}],"name":"stake","outputs":[],"stateMutability":"nonpayable","type":"function"},{"inputs":[{"internalType":"address","name":"","type":"address"}],"name":"stakes","outputs":[{"internalType":"uint256","name":"amount","type":"uint256"},{"internalType":"uint256","name":"stakedAt","type":"uint256"},{"internalType":"uint256","name":"rewardDebt","type":"uint256"}],"stateMutability":"view","type":"function"},{"inputs":[],"name":"token","outputs":[{"internalType":"contract SmartToken","name":"","type":"address"}],"stateMutability":"view","type":"function"},{"inputs":[],"name":"totalStaked","outputs":[{"internalType":"uint256","name":"","type":"uint256"}],"stateMutability":"view","type":"function"},{"inputs":[],"name":"unstake","outputs":[],"stateMutability":"nonpayable","type":"function"}],"evm":{"bytecode":{"linkReferences":{},"object":"60a060405234801561001057600080fd5b50604051610bcd380380610bcd83398101604081905261002f91610040565b6001600160a01b0316608052610070565b60006020828403121561005257600080fd5b81516001600160a01b038116811461006957600080fd5b9392505050565b608051610b1f6100ae600039600081816101b8015281816102b9015281816103850152818161055c0152818161071901526108210152610b1f6000f3fe608060405234801561001057600080fd5b50600436106100b45760003560e01c806364ab86751161007157806364ab86751461014a578063817b1cd21461015d578063a694fc3a14610166578063c345315314610179578063c89d5b8b146101ac578063fc0c546a146101b357600080fd5b806316934fc4146100b957806327ed7188146101085780632d647842146101255780632def66201461012d578063372500ab146101375780635dcc93911461013f575b600080fd5b6100e86100c73660046109ea565b60006020819052908152604090208054600182015460029092015490919083565b604080519384526020840192909252908201526060015b60405180910390f35b610117678ac7230489e8000081565b6040519081526020016100ff565b610117600581565b6101356101f2565b005b61013561046f565b6101176301e1338081565b6101176101583660046109ea565b6105f0565b61011760015481565b610135610174366004610a1a565b61069e565b61018c6101873660046109ea565b610973565b6040805194855260208501939093529183015260608201526080016100ff565b6005610117565b6101da7f000000000000000000000000000000000000000000000000000000000000000081565b6040516001600160a01b0390911681526020016100ff565b336000908152602081905260409020805461024f5760405162461bcd60e51b81526020600482015260186024820152775374616b696e673a206e6f20616374697665207374616b6560401b60448201526064015b60405180910390fd5b80546002820154600090610262336105f0565b61026c9190610a49565b600080855560018086018290556002860182905580549293508492909190610295908490610a62565b909155505060405163a9059cbb60e01b8152336004820152602481018390526000907f00000000000000000000000000000000000000000000000000000000000000006001600160a01b03169063a9059cbb906044016020604051808303816000875af115801561030a573d6000803e3d6000fd5b505050506040513d601f19601f8201168201806040525081019061032e9190610a75565b90508061037d5760405162461bcd60e51b815260206004820152601c60248201527f5374616b696e673a20746f6b656e2072657475726e206661696c6564000000006044820152606401610246565b81156103f7577f00000000000000000000000000000000000000000000000000000000000000006001600160a01b031663de5f72fd6040518163ffffffff1660e01b8152600401600060405180830381600087803b1580156103de57600080fd5b505af11580156103f2573d6000803e3d6000fd5b505050505b60405183815233907f0f5bb82176feb1b5e747e28471aa92156a04d9f3ab9f45f28e2d704232b93f759060200160405180910390a281156104695760405182815233907ffc30cddea38e2bf4d6ea7d3f9ed3b6ad7f176419f4963bd81318067a4aee73fe906020015b60405180910390a25b50505050565b33600090815260208190526040902080546104c75760405162461bcd60e51b81526020600482015260186024820152775374616b696e673a206e6f20616374697665207374616b6560401b6044820152606401610246565b600081600201546104d7336105f0565b6104e19190610a49565b9050600081116105335760405162461bcd60e51b815260206004820152601c60248201527f5374616b696e673a206e6f207265776172647320746f20636c61696d000000006044820152606401610246565b6000600283018190554260018401556040805163de5f72fd60e01b815290516001600160a01b037f0000000000000000000000000000000000000000000000000000000000000000169263de5f72fd926004808201939182900301818387803b15801561059f57600080fd5b505af11580156105b3573d6000803e3d6000fd5b50506040518381523392507ffc30cddea38e2bf4d6ea7d3f9ed3b6ad7f176419f4963bd81318067a4aee73fe915060200160405180910390a25050565b6001600160a01b038116600090815260208181526040808320815160608101835281548082526001830154948201949094526002909101549181019190915290158061063e57506020810151155b1561064c5750600092915050565b600081602001514261065e9190610a62565b905060006106716301e133806064610a97565b8351839061068190600590610a97565b61068b9190610a97565b6106959190610aae565b95945050505050565b678ac7230489e800008110156107025760405162461bcd60e51b815260206004820152602360248201527f5374616b696e673a2062656c6f77206d696e696d756d207374616b6520616d6f6044820152621d5b9d60ea1b6064820152608401610246565b6040516370a0823160e01b815233600482015281907f00000000000000000000000000000000000000000000000000000000000000006001600160a01b0316906370a0823190602401602060405180830381865afa158015610768573d6000803e3d6000fd5b505050506040513d601f19601f8201168201806040525081019061078c9190610ad0565b10156107e65760405162461bcd60e51b815260206004820152602360248201527f5374616b696e673a20696e73756666696369656e7420746f6b656e2062616c616044820152626e636560e81b6064820152608401610246565b60006107f1336105f0565b6040516323b872dd60e01b8152336004820152306024820152604481018490529091506000906001600160a01b037f000000000000000000000000000000000000000000000000000000000000000016906323b872dd906064016020604051808303816000875af115801561086a573d6000803e3d6000fd5b505050506040513d601f19601f8201168201806040525081019061088e9190610a75565b9050806108dd5760405162461bcd60e51b815260206004820152601e60248201527f5374616b696e673a20746f6b656e207472616e73666572206661696c656400006044820152606401610246565b33600090815260208190526040812060028101805491928592610901908490610a49565b909155505080548490829060009061091a908490610a49565b92505081905550428160010181905550836001600082825461093c9190610a49565b909155505060405184815233907f9e71bc8eea02a63969f509818f2dafb9254532904319f9dbda79b67bd34a5f3d90602001610460565b6001600160a01b0381166000908152602081815260408083208151606081018352815481526001820154938101939093526002015490820152819081908190816109bc876105f0565b905081600001518260200151828460400151846109d99190610a49565b955095509550955050509193509193565b6000602082840312156109fc57600080fd5b81356001600160a01b0381168114610a1357600080fd5b9392505050565b600060208284031215610a2c57600080fd5b5035919050565b634e487b7160e01b600052601160045260246000fd5b80820180821115610a5c57610a5c610a33565b92915050565b81810381811115610a5c57610a5c610a33565b600060208284031215610a8757600080fd5b81518015158114610a1357600080fd5b8082028115828204841417610a5c57610a5c610a33565b600082610acb57634e487b7160e01b600052601260045260246000fd5b500490565b600060208284031215610ae257600080fd5b505191905056fea2646970667358221220e49bfbf4f3e5b020d29a3f6a6f04926d368b6e11df3ecc806d954a86a2d70ce764736f6c63430008140033","opcodes":"PUSH1 0xA0 PUSH1 0x40 MSTORE CALLVALUE DUP1 ISZERO PUSH2 0x10 JUMPI PUSH1 0x0 DUP1 REVERT JUMPDEST POP PUSH1 0x40 MLOAD PUSH2 0xBCD CODESIZE SUB DUP1 PUSH2 0xBCD DUP4 CODECOPY DUP2 ADD PUSH1 0x40 DUP2 SWAP1 MSTORE PUSH2 0x2F SWAP2 PUSH2 0x40 JUMP JUMPDEST PUSH1 0x1 PUSH1 0x1 PUSH1 0xA0 SHL SUB AND PUSH1 0x80 MSTORE PUSH2 0x70 JUMP JUMPDEST PUSH1 0x0 PUSH1 0x20 DUP3 DUP5 SUB SLT ISZERO PUSH2 0x52 JUMPI PUSH1 0x0 DUP1 REVERT JUMPDEST DUP2 MLOAD PUSH1 0x1 PUSH1 0x1 PUSH1 0xA0 SHL SUB DUP2 AND DUP2 EQ PUSH2 0x69 JUMPI PUSH1 0x0 DUP1 REVERT JUMPDEST SWAP4 SWAP3 POP POP POP JUMP JUMPDEST PUSH1 0x80 MLOAD PUSH2 0xB1F PUSH2 0xAE PUSH1 0x0 CODECOPY PUSH1 0x0 DUP2 DUP2 PUSH2 0x1B8 ADD MSTORE DUP2 DUP2 PUSH2 0x2B9 ADD MSTORE DUP2 DUP2 PUSH2 0x385 ADD MSTORE DUP2 DUP2 PUSH2 0x55C ADD MSTORE DUP2 DUP2 PUSH2 0x719 ADD MSTORE PUSH2 0x821 ADD MSTORE PUSH2 0xB1F PUSH1 0x0 RETURN INVALID PUSH1 0x80 PUSH1 0x40 MSTORE CALLVALUE DUP1 ISZERO PUSH2 0x10 JUMPI PUSH1 0x0 DUP1 REVERT JUMPDEST POP PUSH1 0x4 CALLDATASIZE LT PUSH2 0xB4 JUMPI PUSH1 0x0 CALLDATALOAD PUSH1 0xE0 SHR DUP1 PUSH4 0x64AB8675 GT PUSH2 0x71 JUMPI DUP1 PUSH4 0x64AB8675 EQ PUSH2 0x14A JUMPI DUP1 PUSH4 0x817B1CD2 EQ PUSH2 0x15D JUMPI DUP1 PUSH4 0xA694FC3A EQ PUSH2 0x166 JUMPI DUP1 PUSH4 0xC3453153 EQ PUSH2 0x179 JUMPI DUP1 PUSH4 0xC89D5B8B EQ PUSH2 0x1AC JUMPI DUP1 PUSH4 0xFC0C546A EQ PUSH2 0x1B3 JUMPI PUSH1 0x0 DUP1 REVERT JUMPDEST DUP1 PUSH4 0x16934FC4 EQ PUSH2 0xB9 JUMPI DUP1 PUSH4 0x27ED7188 EQ PUSH2 0x108 JUMPI DUP1 PUSH4 0x2D647842 EQ PUSH2 0x125 JUMPI DUP1 PUSH4 0x2DEF6620 EQ PUSH2 0x12D JUMPI DUP1 PUSH4 0x372500AB EQ PUSH2 0x137 JUMPI DUP1 PUSH4 0x5DCC9391 EQ PUSH2 0x13F JUMPI JUMPDEST PUSH1 0x0 DUP1 REVERT JUMPDEST PUSH2 0xE8 PUSH2 0xC7 CALLDATASIZE PUSH1 0x4 PUSH2 0x9EA JUMP JUMPDEST PUSH1 0x0 PUSH1 0x20 DUP2 SWAP1 MSTORE SWAP1 DUP2 MSTORE PUSH1 0x40 SWAP1 KECCAK256 DUP1 SLOAD PUSH1 0x1 DUP3 ADD SLOAD PUSH1 0x2 SWAP1 SWAP3 ADD SLOAD SWAP1 SWAP2 SWAP1 DUP4 JUMP JUMPDEST PUSH1 0x40 DUP1 MLOAD SWAP4 DUP5 MSTORE PUSH1 0x20 DUP5 ADD SWAP3 SWAP1 SWAP3 MSTORE SWAP1 DUP3 ADD MSTORE PUSH1 0x60 ADD JUMPDEST PUSH1 0x40 MLOAD DUP1 SWAP2 SUB SWAP1 RETURN JUMPDEST PUSH2 0x117 PUSH8 0x8AC7230489E80000 DUP2 JUMP JUMPDEST PUSH1 0x40 MLOAD SWAP1 DUP2 MSTORE PUSH1 0x20 ADD PUSH2 0xFF JUMP JUMPDEST PUSH2 0x117 PUSH1 0x5 DUP2 JUMP JUMPDEST PUSH2 0x135 PUSH2 0x1F2 JUMP JUMPDEST STOP JUMPDEST PUSH2 0x135 PUSH2 0x46F JUMP JUMPDEST PUSH2 0x117 PUSH4 0x1E13380 DUP2 JUMP JUMPDEST PUSH2 0x117 PUSH2 0x158 CALLDATASIZE PUSH1 0x4 PUSH2 0x9EA JUMP JUMPDEST PUSH2 0x5F0 JUMP JUMPDEST PUSH2 0x117 PUSH1 0x1 SLOAD DUP2 JUMP JUMPDEST PUSH2 0x135 PUSH2 0x174 CALLDATASIZE PUSH1 0x4 PUSH2 0xA1A JUMP JUMPDEST PUSH2 0x69E JUMP JUMPDEST PUSH2 0x18C PUSH2 0x187 CALLDATASIZE PUSH1 0x4 PUSH2 0x9EA JUMP JUMPDEST PUSH2 0x973 JUMP JUMPDEST PUSH1 0x40 DUP1 MLOAD SWAP5 DUP6 MSTORE PUSH1 0x20 DUP6 ADD SWAP4 SWAP1 SWAP4 MSTORE SWAP2 DUP4 ADD MSTORE PUSH1 0x60 DUP3 ADD MSTORE PUSH1 0x80 ADD PUSH2 0xFF JUMP JUMPDEST PUSH1 0x5 PUSH2 0x117 JUMP JUMPDEST PUSH2 0x1DA PUSH32 0x0 DUP2 JUMP JUMPDEST PUSH1 0x40 MLOAD PUSH1 0x1 PUSH1 0x1 PUSH1 0xA0 SHL SUB SWAP1 SWAP2 AND DUP2 MSTORE PUSH1 0x20 ADD PUSH2 0xFF JUMP JUMPDEST CALLER PUSH1 0x0 SWAP1 DUP2 MSTORE PUSH1 0x20 DUP2 SWAP1 MSTORE PUSH1 0x40 SWAP1 KECCAK256 DUP1 SLOAD PUSH2 0x24F JUMPI PUSH1 0x40 MLOAD PUSH3 0x461BCD PUSH1 0xE5 SHL DUP2 MSTORE PUSH1 0x20 PUSH1 0x4 DUP3 ADD MSTORE PUSH1 0x18 PUSH1 0x24 DUP3 ADD MSTORE PUSH24 0x5374616B696E673A206E6F20616374697665207374616B65 PUSH1 0x40 SHL PUSH1 0x44 DUP3 ADD MSTORE PUSH1 0x64 ADD JUMPDEST PUSH1 0x40 MLOAD DUP1 SWAP2 SUB SWAP1 REVERT JUMPDEST DUP1 SLOAD PUSH1 0x2 DUP3 ADD SLOAD PUSH1 0x0 SWAP1 PUSH2 0x262 CALLER PUSH2 0x5F0 JUMP JUMPDEST PUSH2 0x26C SWAP2 SWAP1 PUSH2 0xA49 JUMP JUMPDEST PUSH1 0x0 DUP1 DUP6 SSTORE PUSH1 0x1 DUP1 DUP7 ADD DUP3 SWAP1 SSTORE PUSH1 0x2 DUP7 ADD DUP3 SWAP1 SSTORE DUP1 SLOAD SWAP3 SWAP4 POP DUP5 SWAP3 SWAP1 SWAP2 SWAP1 PUSH2 0x295 SWAP1 DUP5 SWAP1 PUSH2 0xA62 JUMP JUMPDEST SWAP1 SWAP2 SSTORE POP POP PUSH1 0x40 MLOAD PUSH4 0xA9059CBB PUSH1 0xE0 SHL DUP2 MSTORE CALLER PUSH1 0x4 DUP3 ADD MSTORE PUSH1 0x24 DUP2 ADD DUP4 SWAP1 MSTORE PUSH1 0x0 SWAP1 PUSH32 0x0 PUSH1 0x1 PUSH1 0x1 PUSH1 0xA0 SHL SUB AND SWAP1 PUSH4 0xA9059CBB SWAP1 PUSH1 0x44 ADD PUSH1 0x20 PUSH1 0x40 MLOAD DUP1 DUP4 SUB DUP2 PUSH1 0x0 DUP8 GAS CALL ISZERO DUP1 ISZERO PUSH2 0x30A JUMPI RETURNDATASIZE PUSH1 0x0 DUP1 RETURNDATACOPY RETURNDATASIZE PUSH1 0x0 REVERT JUMPDEST POP POP POP POP PUSH1 0x40 MLOAD RETURNDATASIZE PUSH1 0x1F NOT PUSH1 0x1F DUP3 ADD AND DUP3 ADD DUP1 PUSH1 0x40 MSTORE POP DUP2 ADD SWAP1 PUSH2 0x32E SWAP2 SWAP1 PUSH2 0xA75 JUMP JUMPDEST SWAP1 POP DUP1 PUSH2 0x37D JUMPI PUSH1 0x40 MLOAD PUSH3 0x461BCD PUSH1 0xE5 SHL DUP2 MSTORE PUSH1 0x20 PUSH1 0x4 DUP3 ADD MSTORE PUSH1 0x1C PUSH1 0x24 DUP3 ADD MSTORE PUSH32 0x5374616B696E673A20746F6B656E2072657475726E206661696C656400000000 PUSH1 0x44 DUP3 ADD MSTORE PUSH1 0x64 ADD PUSH2 0x246 JUMP JUMPDEST DUP2 ISZERO PUSH2 0x3F7 JUMPI PUSH32 0x0 PUSH1 0x1 PUSH1 0x1 PUSH1 0xA0 SHL SUB AND PUSH4 0xDE5F72FD PUSH1 0x40 MLOAD DUP2 PUSH4 0xFFFFFFFF AND PUSH1 0xE0 SHL DUP2 MSTORE PUSH1 0x4 ADD PUSH1 0x0 PUSH1 0x40 MLOAD DUP1 DUP4 SUB DUP2 PUSH1 0x0 DUP8 DUP1 EXTCODESIZE ISZERO DUP1 ISZERO PUSH2 0x3DE JUMPI PUSH1 0x0 DUP1 REVERT JUMPDEST POP GAS CALL ISZERO DUP1 ISZERO PUSH2 0x3F2 JUMPI RETURNDATASIZE PUSH1 0x0 DUP1 RETURNDATACOPY RETURNDATASIZE PUSH1 0x0 REVERT JUMPDEST POP POP POP POP JUMPDEST PUSH1 0x40 MLOAD DUP4 DUP2 MSTORE CALLER SWAP1 PUSH32 0xF5BB82176FEB1B5E747E28471AA92156A04D9F3AB9F45F28E2D704232B93F75 SWAP1 PUSH1 0x20 ADD PUSH1 0x40 MLOAD DUP1 SWAP2 SUB SWAP1 LOG2 DUP2 ISZERO PUSH2 0x469 JUMPI PUSH1 0x40 MLOAD DUP3 DUP2 MSTORE CALLER SWAP1 PUSH32 0xFC30CDDEA38E2BF4D6EA7D3F9ED3B6AD7F176419F4963BD81318067A4AEE73FE SWAP1 PUSH1 0x20 ADD JUMPDEST PUSH1 0x40 MLOAD DUP1 SWAP2 SUB SWAP1 LOG2 JUMPDEST POP POP POP POP JUMP JUMPDEST CALLER PUSH1 0x0 SWAP1 DUP2 MSTORE PUSH1 0x20 DUP2 SWAP1 MSTORE PUSH1 0x40 SWAP1 KECCAK256 DUP1 SLOAD PUSH2 0x4C7 JUMPI PUSH1 0x40 MLOAD PUSH3 0x461BCD PUSH1 0xE5 SHL DUP2 MSTORE PUSH1 0x20 PUSH1 0x4 DUP3 ADD MSTORE PUSH1 0x18 PUSH1 0x24 DUP3 ADD MSTORE PUSH24 0x5374616B696E673A206E6F20616374697665207374616B65 PUSH1 0x40 SHL PUSH1 0x44 DUP3 ADD MSTORE PUSH1 0x64 ADD PUSH2 0x246 JUMP JUMPDEST PUSH1 0x0 DUP2 PUSH1 0x2 ADD SLOAD PUSH2 0x4D7 CALLER PUSH2 0x5F0 JUMP JUMPDEST PUSH2 0x4E1 SWAP2 SWAP1 PUSH2 0xA49 JUMP JUMPDEST SWAP1 POP PUSH1 0x0 DUP2 GT PUSH2 0x533 JUMPI PUSH1 0x40 MLOAD PUSH3 0x461BCD PUSH1 0xE5 SHL DUP2 MSTORE PUSH1 0x20 PUSH1 0x4 DUP3 ADD MSTORE PUSH1 0x1C PUSH1 0x24 DUP3 ADD MSTORE PUSH32 0x5374616B696E673A206E6F207265776172647320746F20636C61696D00000000 PUSH1 0x44 DUP3 ADD MSTORE PUSH1 0x64 ADD PUSH2 0x246 JUMP JUMPDEST PUSH1 0x0 PUSH1 0x2 DUP4 ADD DUP2 SWAP1 SSTORE TIMESTAMP PUSH1 0x1 DUP5 ADD SSTORE PUSH1 0x40 DUP1 MLOAD PUSH4 0xDE5F72FD PUSH1 0xE0 SHL DUP2 MSTORE SWAP1 MLOAD PUSH1 0x1 PUSH1 0x1 PUSH1 0xA0 SHL SUB PUSH32 0x0 AND SWAP3 PUSH4 0xDE5F72FD SWAP3 PUSH1 0x4 DUP1 DUP3 ADD SWAP4 SWAP2 DUP3 SWAP1 SUB ADD DUP2 DUP4 DUP8 DUP1 EXTCODESIZE ISZERO DUP1 ISZERO PUSH2 0x59F JUMPI PUSH1 0x0 DUP1 REVERT JUMPDEST POP GAS CALL ISZERO DUP1 ISZERO PUSH2 0x5B3 JUMPI RETURNDATASIZE PUSH1 0x0 DUP1 RETURNDATACOPY RETURNDATASIZE PUSH1 0x0 REVERT JUMPDEST POP POP PUSH1 0x40 MLOAD DUP4 DUP2 MSTORE CALLER SWAP3 POP PUSH32 0xFC30CDDEA38E2BF4D6EA7D3F9ED3B6AD7F176419F4963BD81318067A4AEE73FE SWAP2 POP PUSH1 0x20 ADD PUSH1 0x40 MLOAD DUP1 SWAP2 SUB SWAP1 LOG2 POP POP JUMP JUMPDEST PUSH1 0x1 PUSH1 0x1 PUSH1 0xA0 SHL SUB DUP2 AND PUSH1 0x0 SWAP1 DUP2 MSTORE PUSH1 0x20 DUP2 DUP2 MSTORE PUSH1 0x40 DUP1 DUP4 KECCAK256 DUP2 MLOAD PUSH1 0x60 DUP2 ADD DUP4 MSTORE DUP2 SLOAD DUP1 DUP3 MSTORE PUSH1 0x1 DUP4 ADD SLOAD SWAP5 DUP3 ADD SWAP5 SWAP1 SWAP5 MSTORE PUSH1 0x2 SWAP1 SWAP2 ADD SLOAD SWAP2 DUP2 ADD SWAP2 SWAP1 SWAP2 MSTORE SWAP1 ISZERO DUP1 PUSH2 0x63E JUMPI POP PUSH1 0x20 DUP2 ADD MLOAD ISZERO JUMPDEST ISZERO PUSH2 0x64C JUMPI POP PUSH1 0x0 SWAP3 SWAP2 POP POP JUMP JUMPDEST PUSH1 0x0 DUP2 PUSH1 0x20 ADD MLOAD TIMESTAMP PUSH2 0x65E SWAP2 SWAP1 PUSH2 0xA62 JUMP JUMPDEST SWAP1 POP PUSH1 0x0 PUSH2 0x671 PUSH4 0x1E13380 PUSH1 0x64 PUSH2 0xA97 JUMP JUMPDEST DUP4 MLOAD DUP4 SWAP1 PUSH2 0x681 SWAP1 PUSH1 0x5 SWAP1 PUSH2 0xA97 JUMP JUMPDEST PUSH2 0x68B SWAP2 SWAP1 PUSH2 0xA97 JUMP JUMPDEST PUSH2 0x695 SWAP2 SWAP1 PUSH2 0xAAE JUMP JUMPDEST SWAP6 SWAP5 POP POP POP POP POP JUMP JUMPDEST PUSH8 0x8AC7230489E80000 DUP2 LT ISZERO PUSH2 0x702 JUMPI PUSH1 0x40 MLOAD PUSH3 0x461BCD PUSH1 0xE5 SHL DUP2 MSTORE PUSH1 0x20 PUSH1 0x4 DUP3 ADD MSTORE PUSH1 0x23 PUSH1 0x24 DUP3 ADD MSTORE PUSH32 0x5374616B696E673A2062656C6F77206D696E696D756D207374616B6520616D6F PUSH1 0x44 DUP3 ADD MSTORE PUSH3 0x1D5B9D PUSH1 0xEA SHL PUSH1 0x64 DUP3 ADD MSTORE PUSH1 0x84 ADD PUSH2 0x246 JUMP JUMPDEST PUSH1 0x40 MLOAD PUSH4 0x70A08231 PUSH1 0xE0 SHL DUP2 MSTORE CALLER PUSH1 0x4 DUP3 ADD MSTORE DUP2 SWAP1 PUSH32 0x0 PUSH1 0x1 PUSH1 0x1 PUSH1 0xA0 SHL SUB AND SWAP1 PUSH4 0x70A08231 SWAP1 PUSH1 0x24 ADD PUSH1 0x20 PUSH1 0x40 MLOAD DUP1 DUP4 SUB DUP2 DUP7 GAS STATICCALL ISZERO DUP1 ISZERO PUSH2 0x768 JUMPI RETURNDATASIZE PUSH1 0x0 DUP1 RETURNDATACOPY RETURNDATASIZE PUSH1 0x0 REVERT JUMPDEST POP POP POP POP PUSH1 0x40 MLOAD RETURNDATASIZE PUSH1 0x1F NOT PUSH1 0x1F DUP3 ADD AND DUP3 ADD DUP1 PUSH1 0x40 MSTORE POP DUP2 ADD SWAP1 PUSH2 0x78C SWAP2 SWAP1 PUSH2 0xAD0 JUMP JUMPDEST LT ISZERO PUSH2 0x7E6 JUMPI PUSH1 0x40 MLOAD PUSH3 0x461BCD PUSH1 0xE5 SHL DUP2 MSTORE PUSH1 0x20 PUSH1 0x4 DUP3 ADD MSTORE PUSH1 0x23 PUSH1 0x24 DUP3 ADD MSTORE PUSH32 0x5374616B696E673A20696E73756666696369656E7420746F6B656E2062616C61 PUSH1 0x44 DUP3 ADD MSTORE PUSH3 0x6E6365 PUSH1 0xE8 SHL PUSH1 0x64 DUP3 ADD MSTORE PUSH1 0x84 ADD PUSH2 0x246 JUMP JUMPDEST PUSH1 0x0 PUSH2 0x7F1 CALLER PUSH2 0x5F0 JUMP JUMPDEST PUSH1 0x40 MLOAD PUSH4 0x23B872DD PUSH1 0xE0 SHL DUP2 MSTORE CALLER PUSH1 0x4 DUP3 ADD MSTORE ADDRESS PUSH1 0x24 DUP3 ADD MSTORE PUSH1 0x44 DUP2 ADD DUP5 SWAP1 MSTORE SWAP1 SWAP2 POP PUSH1 0x0 SWAP1 PUSH1 0x1 PUSH1 0x1 PUSH1 0xA0 SHL SUB PUSH32 0x0 AND SWAP1 PUSH4 0x23B872DD SWAP1 PUSH1 0x64 ADD PUSH1 0x20 PUSH1 0x40 MLOAD DUP1 DUP4 SUB DUP2 PUSH1 0x0 DUP8 GAS CALL ISZERO DUP1 ISZERO PUSH2 0x86A JUMPI RETURNDATASIZE PUSH1 0x0 DUP1 RETURNDATACOPY RETURNDATASIZE PUSH1 0x0 REVERT JUMPDEST POP POP POP POP PUSH1 0x40 MLOAD RETURNDATASIZE PUSH1 0x1F NOT PUSH1 0x1F DUP3 ADD AND DUP3 ADD DUP1 PUSH1 0x40 MSTORE POP DUP2 ADD SWAP1 PUSH2 0x88E SWAP2 SWAP1 PUSH2 0xA75 JUMP JUMPDEST SWAP1 POP DUP1 PUSH2 0x8DD JUMPI PUSH1 0x40 MLOAD PUSH3 0x461BCD PUSH1 0xE5 SHL DUP2 MSTORE PUSH1 0x20 PUSH1 0x4 DUP3 ADD MSTORE PUSH1 0x1E PUSH1 0x24 DUP3 ADD MSTORE PUSH32 0x5374616B696E673A20746F6B656E207472616E73666572206661696C65640000 PUSH1 0x44 DUP3 ADD MSTORE PUSH1 0x64 ADD PUSH2 0x246 JUMP JUMPDEST CALLER PUSH1 0x0 SWAP1 DUP2 MSTORE PUSH1 0x20 DUP2 SWAP1 MSTORE PUSH1 0x40 DUP2 KECCAK256 PUSH1 0x2 DUP2 ADD DUP1 SLOAD SWAP2 SWAP3 DUP6 SWAP3 PUSH2 0x901 SWAP1 DUP5 SWAP1 PUSH2 0xA49 JUMP JUMPDEST SWAP1 SWAP2 SSTORE POP POP DUP1 SLOAD DUP5 SWAP1 DUP3 SWAP1 PUSH1 0x0 SWAP1 PUSH2 0x91A SWAP1 DUP5 SWAP1 PUSH2 0xA49 JUMP JUMPDEST SWAP3 POP POP DUP2 SWAP1 SSTORE POP TIMESTAMP DUP2 PUSH1 0x1 ADD DUP2 SWAP1 SSTORE POP DUP4 PUSH1 0x1 PUSH1 0x0 DUP3 DUP3 SLOAD PUSH2 0x93C SWAP2 SWAP1 PUSH2 0xA49 JUMP JUMPDEST SWAP1 SWAP2 SSTORE POP POP PUSH1 0x40 MLOAD DUP5 DUP2 MSTORE CALLER SWAP1 PUSH32 0x9E71BC8EEA02A63969F509818F2DAFB9254532904319F9DBDA79B67BD34A5F3D SWAP1 PUSH1 0x20 ADD PUSH2 0x460 JUMP JUMPDEST PUSH1 0x1 PUSH1 0x1 PUSH1 0xA0 SHL SUB DUP2 AND PUSH1 0x0 SWAP1 DUP2 MSTORE PUSH1 0x20 DUP2 DUP2 MSTORE PUSH1 0x40 DUP1 DUP4 KECCAK256 DUP2 MLOAD PUSH1 0x60 DUP2 ADD DUP4 MSTORE DUP2 SLOAD DUP2 MSTORE PUSH1 0x1 DUP3 ADD SLOAD SWAP4 DUP2 ADD SWAP4 SWAP1 SWAP4 MSTORE PUSH1 0x2 ADD SLOAD SWAP1 DUP3 ADD MSTORE DUP2 SWAP1 DUP2 SWAP1 DUP2 SWAP1 DUP2 PUSH2 0x9BC DUP8 PUSH2 0x5F0 JUMP JUMPDEST SWAP1 POP DUP2 PUSH1 0x0 ADD MLOAD DUP3 PUSH1 0x20 ADD MLOAD DUP3 DUP5 PUSH1 0x40 ADD MLOAD DUP5 PUSH2 0x9D9 SWAP2 SWAP1 PUSH2 0xA49 JUMP JUMPDEST SWAP6 POP SWAP6 POP SWAP6 POP SWAP6 POP POP POP SWAP2 SWAP4 POP SWAP2 SWAP4 JUMP JUMPDEST PUSH1 0x0 PUSH1 0x20 DUP3 DUP5 SUB SLT ISZERO PUSH2 0x9FC JUMPI PUSH1 0x0 DUP1 REVERT JUMPDEST DUP2 CALLDATALOAD PUSH1 0x1 PUSH1 0x1 PUSH1 0xA0 SHL SUB DUP2 AND DUP2 EQ PUSH2 0xA13 JUMPI PUSH1 0x0 DUP1 REVERT JUMPDEST SWAP4 SWAP3 POP POP POP JUMP JUMPDEST PUSH1 0x0 PUSH1 0x20 DUP3 DUP5 SUB SLT ISZERO PUSH2 0xA2C JUMPI PUSH1 0x0 DUP1 REVERT JUMPDEST POP CALLDATALOAD SWAP2 SWAP1 POP JUMP JUMPDEST PUSH4 0x4E487B71 PUSH1 0xE0 SHL PUSH1 0x0 MSTORE PUSH1 0x11 PUSH1 0x4 MSTORE PUSH1 0x24 PUSH1 0x0 REVERT JUMPDEST DUP1 DUP3 ADD DUP1 DUP3 GT ISZERO PUSH2 0xA5C JUMPI PUSH2 0xA5C PUSH2 0xA33 JUMP JUMPDEST SWAP3 SWAP2 POP POP JUMP JUMPDEST DUP2 DUP2 SUB DUP2 DUP2 GT ISZERO PUSH2 0xA5C JUMPI PUSH2 0xA5C PUSH2 0xA33 JUMP JUMPDEST PUSH1 0x0 PUSH1 0x20 DUP3 DUP5 SUB SLT ISZERO PUSH2 0xA87 JUMPI PUSH1 0x0 DUP1 REVERT JUMPDEST DUP2 MLOAD DUP1 ISZERO ISZERO DUP2 EQ PUSH2 0xA13 JUMPI PUSH1 0x0 DUP1 REVERT JUMPDEST DUP1 DUP3 MUL DUP2 ISZERO DUP3 DUP3 DIV DUP5 EQ OR PUSH2 0xA5C JUMPI PUSH2 0xA5C PUSH2 0xA33 JUMP JUMPDEST PUSH1 0x0 DUP3 PUSH2 0xACB JUMPI PUSH4 0x4E487B71 PUSH1 0xE0 SHL PUSH1 0x0 MSTORE PUSH1 0x12 PUSH1 0x4 MSTORE PUSH1 0x24 PUSH1 0x0 REVERT JUMPDEST POP DIV SWAP1 JUMP JUMPDEST PUSH1 0x0 PUSH1 0x20 DUP3 DUP5 SUB SLT ISZERO PUSH2 0xAE2 JUMPI PUSH1 0x0 DUP1 REVERT JUMPDEST POP MLOAD SWAP2 SWAP1 POP JUMP INVALID LOG2 PUSH5 0x6970667358 0x22 SLT KECCAK256 0xE4 SWAP12 0xFB DELEGATECALL RETURN 0xE5 0xB0 KECCAK256 0xD2 SWAP11 EXTCODEHASH PUSH11 0x6F04926D368B6E11DF3ECC DUP1 PUSH14 0x954A86A2D70CE764736F6C634300 ADDMOD EQ STOP CALLER "},"methodIdentifiers":{"APR_RATE()":"2d647842","MIN_STAKE_AMOUNT()":"27ed7188","SECONDS_IN_YEAR()":"5dcc9391","calculateRewards(address)":"64ab8675","claimRewards()":"372500ab","getAPR()":"c89d5b8b","getStakeInfo(address)":"c3453153","stake(uint256)":"a694fc3a","stakes(address)":"16934fc4","token()":"fc0c546a","totalStaked()":"817b1cd2","unstake()":"2def6620"}}}}}