{
  "_format": "hh-sol-artifact-1",
  "contractName": "SmartToken",
  "sourceName": "contracts/SmartToken.sol",
  "abi": [
    {
      "inputs": [],
      "stateMutability": "nonpayable",
      "type": "constructor"
    },
    {
      "anonymous": false,
      "inputs": [
        {
          "indexed": true,
          "internalType": "address",
          "name": "owner",
          "type": "address"
        },
        {
          "indexed": true,
          "internalType": "address",
          "name": "spender",
          "type": "address"
        },
        {
          "indexed": false,
          "internalType": "uint256",
          "name": "value",
          "type": "uint256"
        }
      ],
      "name": "Approval",
      "type": "event"
    },
    {
      "anonymous": false,
      "inputs": [
        {
          "indexed": true,
          "internalType": "address",
          "name": "from",
          "type": "address"
        },
        {
          "indexed": false,
          "internalType": "uint256",
          "name": "amount",
          "type": "uint256"
        }
      ],
      "name": "Burn",
      "type": "event"
    },
    {
      "anonymous": false,
      "inputs": [
        {
          "indexed": true,
          "internalType": "address",
          "name": "claimant",
          "type": "address"
        },
        {
          "indexed": false,
          "internalType": "uint256",
          "name": "amount",
          "type": "uint256"
        }
      ],
      "name": "FaucetClaimed",
      "type": "event"
    },
    {
      "anonymous": false,
      "inputs": [
        {
          "indexed": true,
          "internalType": "address",
          "name": "to",
          "type": "address"
        },
        {
          "indexed": false,
          "internalType": "uint256",
          "name": "amount",
          "type": "uint256"
        }
      ],
      "name": "Mint",
      "type": "event"
    },
    {
      "anonymous": false,
      "inputs": [
        {
          "indexed": true,
          "internalType": "address",
          "name": "from",
          "type": "address"
        },
        {
          "indexed": true,
          "internalType": "address",
          "name": "to",
          "type": "address"
        },
        {
          "indexed": false,
          "internalType": "uint256",
          "name": "value",
          "type": "uint256"
        }
      ],
      "name": "Transfer",
      "type": "event"
    },
    {
      "inputs": [],
      "name": "FAUCET_AMOUNT",
      "outputs": [
        {
          "internalType": "uint256",
          "name": "",
          "type": "uint256"
        }
      ],
      "stateMutability": "view",
      "type": "function"
    },
    {
      "inputs": [],
      "name": "FAUCET_COOLDOWN",
      "outputs": [
        {
          "internalType": "uint256",
          "name": "",
          "type": "uint256"
        }
      ],
      "stateMutability": "view",
      "type": "function"
    },
    {
      "inputs": [],
      "name": "MAX_SUPPLY",
      "outputs": [
        {
          "internalType": "uint256",
          "name": "",
          "type": "uint256"
        }
      ],
      "stateMutability": "view",
      "type": "function"
    },
    {
      "inputs": [
        {
          "internalType": "address",
          "name": "",
          "type": "address"
        },
        {
          "internalType": "address",
          "name": "",
          "type": "address"
        }
      ],
      "name": "allowance",
      "outputs": [
        {
          "internalType": "uint256",
          "name": "",
          "type": "uint256"
        }
      ],
      "stateMutability": "view",
      "type": "function"
    },
    {
      "inputs": [
        {
          "internalType": "address",
          "name": "spender",
          "type": "address"
        },
        {
          "internalType": "uint256",
          "name": "amount",
          "type": "uint256"
        }
      ],
      "name": "approve",
      "outputs": [
        {
          "internalType": "bool",
          "name": "",
          "type": "bool"
        }
      ],
      "stateMutability": "nonpayable",
      "type": "function"
    },
    {
      "inputs": [
        {
          "internalType": "address",
          "name": "",
          "type": "address"
        }
      ],
      "name": "balanceOf",
      "outputs": [
        {
          "internalType": "uint256",
          "name": "",
          "type": "uint256"
        }
      ],
      "stateMutability": "view",
      "type": "function"
    },
    {
      "inputs": [
        {
          "internalType": "uint256",
          "name": "amount",
          "type": "uint256"
        }
      ],
      "name": "burn",
      "outputs": [],
      "stateMutability": "nonpayable",
      "type": "function"
    },
    {
      "inputs": [],
      "name": "decimals",
      "outputs": [
        {
          "internalType": "uint8",
          "name": "",
          "type": "uint8"
        }
      ],
      "stateMutability": "view",
      "type": "function"
    },
    {
      "inputs": [],
      "name": "faucet",
      "outputs": [],
      "stateMutability": "nonpayable",
      "type": "function"
    },
    {
      "inputs": [
        {
          "internalType": "address",
          "name": "user",
          "type": "address"
        }
      ],
      "name": "faucetCooldownRemaining",
      "outputs": [
        {
          "internalType": "uint256",
          "name": "",
          "type": "uint256"
        }
      ],
      "stateMutability": "view",
      "type": "function"
    },
    {
      "inputs": [
        {
          "internalType": "address",
          "name": "",
          "type": "address"
        }
      ],
      "name": "lastFaucetTime",
      "outputs": [
        {
          "internalType": "uint256",
          "name": "",
          "type": "uint256"
        }
      ],
      "stateMutability": "view",
      "type": "function"
    },
    {
      "inputs": [
        {
          "internalType": "address",
          "name": "to",
          "type": "address"
        },
        {
          "internalType": "uint256",
          "name": "amount",
          "type": "uint256"
        }
      ],
      "name": "mint",
      "outputs": [],
      "stateMutability": "nonpayable",
      "type": "function"
    },
    {
      "inputs": [],
      "name": "name",
      "outputs": [
        {
          "internalType": "string",
          "name": "",
          "type": "string"
        }
      ],
      "stateMutability": "view",
      "type": "function"
    },
    {
      "inputs": [],
      "name": "owner",
      "outputs": [
        {
          "internalType": "address",
          "name": "",
          "type": "address"
        }
      ],
      "stateMutability": "view",
      "type": "function"
    },
    {
      "inputs": [],
      "name": "symbol",
      "outputs": [
        {
          "internalType": "string",
          "name": "",
          "type": "string"
        }
      ],
      "stateMutability": "view",
      "type": "function"
    },
    {
      "inputs": [],
      "name": "totalSupply",
      "outputs": [
        {
          "internalType": "uint256",
          "name": "",
          "type": "uint256"
        }
      ],
      "stateMutability": "view",
      "type": "function"
    },
    {
      "inputs": [
        {
          "internalType": "address",
          "name": "to",
          "type": "address"
        },
        {
          "internalType": "uint256",
          "name": "amount",
          "type": "uint256"
        }
      ],
      "name": "transfer",
      "outputs": [
        {
          "internalType": "bool",
          "name": "",
          "type": "bool"
        }
      ],
      "stateMutability": "nonpayable",
      "type": "function"
    },
    {
      "inputs": [
        {
          "internalType": "address",
          "name": "from",
          "type": "address"
        },
        {
          "internalType": "address",
          "name": "to",
          "type": "address"
        },
        {
          "internalType": "uint256",
          "name": "amount",
          "type": "uint256"
        }
      ],
      "name": "transferFrom",
      "outputs": [
        {
          "internalType": "bool",
          "name": "",
          "type": "bool"
        }
      ],
      "stateMutability": "nonpayable",
      "type": "function"
    }
  ],
  "bytecode": "0x60c0604052600a60809081526929b6b0b93a2a37b5b2b760b11b60a0526000906200002b908262000271565b5060408051808201909152600381526214d35560ea1b602082015260019062000055908262000271565b506002805460ff191660121790553480156200007057600080fd5b50600480546001600160a01b031916339081179091556a084595161401484a000000906200009f9082620000a6565b5062000365565b6001600160a01b038216620001015760405162461bcd60e51b815260206004820181905260248201527f536d617274546f6b656e3a206d696e7420746f207a65726f2061646472657373604482015260640160405180910390fd5b80600360008282546200011591906200033d565b90915550506001600160a01b03821660009081526005602052604081208054839290620001449084906200033d565b90915550506040518181526001600160a01b038316907f0f6798a560793a54c3bcfe86a93cde1e73087d944c0ea20544137d41213968859060200160405180910390a26040518181526001600160a01b038316906000907fddf252ad1be2c89b69c2b068fc378daa952ba7f163c4a11628f55a4df523b3ef9060200160405180910390a35050565b634e487b7160e01b600052604160045260246000fd5b600181811c90821680620001f757607f821691505b6020821081036200021857634e487b7160e01b600052602260045260246000fd5b50919050565b601f8211156200026c57600081815260208120601f850160051c81016020861015620002475750805b601f850160051c820191505b81811015620002685782815560010162000253565b5050505b505050565b81516001600160401b038111156200028d576200028d620001cc565b620002a5816200029e8454620001e2565b846200021e565b602080601f831160018114620002dd5760008415620002c45750858301515b600019600386901b1c1916600185901b17855562000268565b600085815260208120601f198616915b828110156200030e57888601518255948401946001909101908401620002ed565b50858210156200032d5787850151600019600388901b60f8161c191681555b5050505050600190811b01905550565b808201808211156200035f57634e487b7160e01b600052601160045260246000fd5b92915050565b610da880620003756000396000f3fe608060405234801561001057600080fd5b50600436106101165760003560e01c806376697640116100a257806395d89b411161007157806395d89b4114610264578063a9059cbb1461026c578063b44bae8e1461027f578063dd62ed3e14610292578063de5f72fd146102bd57600080fd5b806376697640146101ff5780637bc1f6cc1461020f5780637d1d5d191461022f5780638da5cb5b1461023957600080fd5b8063313ce567116100e9578063313ce5671461018657806332cb6b0c146101a557806340c10f19146101b757806342966c68146101cc57806370a08231146101df57600080fd5b806306fdde031461011b578063095ea7b31461013957806318160ddd1461015c57806323b872dd14610173575b600080fd5b6101236102c5565b6040516101309190610b25565b60405180910390f35b61014c610147366004610b8f565b610353565b6040519015158152602001610130565b61016560035481565b604051908152602001610130565b61014c610181366004610bb9565b610422565b6002546101939060ff1681565b60405160ff9091168152602001610130565b6101656a52b7d2dcc80cd2e400000081565b6101ca6101c5366004610b8f565b6105d9565b005b6101ca6101da366004610bf5565b6106b5565b6101656101ed366004610c0e565b60056020526000908152604090205481565b610165683635c9adc5dea0000081565b61016561021d366004610c0e565b60076020526000908152604090205481565b6101656201518081565b60045461024c906001600160a01b031681565b6040516001600160a01b039091168152602001610130565b61012361077f565b61014c61027a366004610b8f565b61078c565b61016561028d366004610c0e565b61085f565b6101656102a0366004610c30565b600660209081526000928352604080842090915290825290205481565b6101ca6108c7565b600080546102d290610c63565b80601f01602080910402602001604051908101604052809291908181526020018280546102fe90610c63565b801561034b5780601f106103205761010080835404028352916020019161034b565b820191906000526020600020905b81548152906001019060200180831161032e57829003601f168201915b505050505081565b60006001600160a01b0383166103bc5760405162461bcd60e51b815260206004820152602360248201527f536d617274546f6b656e3a20617070726f766520746f207a65726f206164647260448201526265737360e81b60648201526084015b60405180910390fd5b3360008181526006602090815260408083206001600160a01b03881680855290835292819020869055518581529192917f8c5be1e5ebec7d5bd14f71427d1e84f3dd0314c0f7b2291e5b200ac8c7c3b92591015b60405180910390a35060015b92915050565b60006001600160a01b03831661044a5760405162461bcd60e51b81526004016103b390610c9d565b6001600160a01b0384166000908152600560205260409020548211156104825760405162461bcd60e51b81526004016103b390610ce1565b6001600160a01b03841660009081526006602090815260408083203384529091529020548211156105005760405162461bcd60e51b815260206004820152602260248201527f536d617274546f6b656e3a20696e73756666696369656e7420616c6c6f77616e604482015261636560f01b60648201526084016103b3565b6001600160a01b038416600090815260066020908152604080832033845290915281208054849290610533908490610d2c565b90915550506001600160a01b03841660009081526005602052604081208054849290610560908490610d2c565b90915550506001600160a01b0383166000908152600560205260408120805484929061058d908490610d3f565b92505081905550826001600160a01b0316846001600160a01b0316600080516020610d53833981519152846040516105c791815260200190565b60405180910390a35060019392505050565b6004546001600160a01b0316331461063f5760405162461bcd60e51b815260206004820152602360248201527f536d617274546f6b656e3a2063616c6c6572206973206e6f7420746865206f776044820152623732b960e91b60648201526084016103b3565b6a52b7d2dcc80cd2e4000000816003546106599190610d3f565b11156106a75760405162461bcd60e51b815260206004820152601f60248201527f536d617274546f6b656e3a206d617820737570706c792065786365656465640060448201526064016103b3565b6106b18282610a1a565b5050565b336000908152600560205260409020548111156106e45760405162461bcd60e51b81526004016103b390610ce1565b3360009081526005602052604081208054839290610703908490610d2c565b92505081905550806003600082825461071c9190610d2c565b909155505060405181815233907fcc16f5dbb4873280815c1ee09dbd06736cffcc184412cf7a71a0fdb75d397ca59060200160405180910390a26040518181526000903390600080516020610d538339815191529060200160405180910390a350565b600180546102d290610c63565b60006001600160a01b0383166107b45760405162461bcd60e51b81526004016103b390610c9d565b336000908152600560205260409020548211156107e35760405162461bcd60e51b81526004016103b390610ce1565b3360009081526005602052604081208054849290610802908490610d2c565b90915550506001600160a01b0383166000908152600560205260408120805484929061082f908490610d3f565b90915550506040518281526001600160a01b038416903390600080516020610d5383398151915290602001610410565b6001600160a01b038116600090815260076020526040812054610886906201518090610d3f565b421061089457506000919050565b6001600160a01b03821660009081526007602052604090205442906108bd906201518090610d3f565b61041c9190610d2c565b336000908152600760205260409020546108e5906201518090610d3f565b4210156109445760405162461bcd60e51b815260206004820152602760248201527f536d617274546f6b656e3a2066617563657420636f6f6c646f776e206e6f7420604482015266195e1c1a5c995960ca1b60648201526084016103b3565b6a52b7d2dcc80cd2e4000000683635c9adc5dea000006003546109679190610d3f565b11156109b55760405162461bcd60e51b815260206004820152601f60248201527f536d617274546f6b656e3a206d617820737570706c792065786365656465640060448201526064016103b3565b3360008181526007602052604090204290556109da90683635c9adc5dea00000610a1a565b604051683635c9adc5dea00000815233907f5d4f415c63cd8a5874d9d291cdd64cec37e5dc236d90d659c958d109d78074b39060200160405180910390a2565b6001600160a01b038216610a705760405162461bcd60e51b815260206004820181905260248201527f536d617274546f6b656e3a206d696e7420746f207a65726f206164647265737360448201526064016103b3565b8060036000828254610a829190610d3f565b90915550506001600160a01b03821660009081526005602052604081208054839290610aaf908490610d3f565b90915550506040518181526001600160a01b038316907f0f6798a560793a54c3bcfe86a93cde1e73087d944c0ea20544137d41213968859060200160405180910390a26040518181526001600160a01b03831690600090600080516020610d538339815191529060200160405180910390a35050565b600060208083528351808285015260005b81811015610b5257858101830151858201604001528201610b36565b506000604082860101526040601f19601f8301168501019250505092915050565b80356001600160a01b0381168114610b8a57600080fd5b919050565b60008060408385031215610ba257600080fd5b610bab83610b73565b946020939093013593505050565b600080600060608486031215610bce57600080fd5b610bd784610b73565b9250610be560208501610b73565b9150604084013590509250925092565b600060208284031215610c0757600080fd5b5035919050565b600060208284031215610c2057600080fd5b610c2982610b73565b9392505050565b60008060408385031215610c4357600080fd5b610c4c83610b73565b9150610c5a60208401610b73565b90509250929050565b600181811c90821680610c7757607f821691505b602082108103610c9757634e487b7160e01b600052602260045260246000fd5b50919050565b60208082526024908201527f536d617274546f6b656e3a207472616e7366657220746f207a65726f206164646040820152637265737360e01b606082015260800190565b6020808252818101527f536d617274546f6b656e3a20696e73756666696369656e742062616c616e6365604082015260600190565b634e487b7160e01b600052601160045260246000fd5b8181038181111561041c5761041c610d16565b8082018082111561041c5761041c610d1656feddf252ad1be2c89b69c2b068fc378daa952ba7f163c4a11628f55a4df523b3efa26469706673582212205da9ab67748033f9d14ea6603f85db0cddc6d32f5c6139c24843cb8b9ea8f0a464736f6c63430008140033",
  "linkReferences": {},
  "deployedLinkReferences": {}
}