{
  "_format": "hh-sol-artifact-1",
  "contractName": "UserManagement",
  "sourceName": "contracts/UserManagement.sol",
  "abi": [
    {
      "inputs": [],
      "stateMutability": "nonpayable",
      "type": "constructor"
    },
    {
      "inputs": [
        {
          "internalType": "address",
          "name": "owner",
          "type": "address"
        }
      ],
      "name": "OwnableInvalidOwner",
      "type": "error"
    },
    {
      "inputs": [
        {
          "internalType": "address",
          "name": "account",
          "type": "address"
        }
      ],
      "name": "OwnableUnauthorizedAccount",
      "type": "error"
    },
    {
      "inputs": [],
      "name": "ReentrancyGuardReentrantCall",
      "type": "error"
    },
    {
      "anonymous": false,
      "inputs": [
        {
          "indexed": true,
          "internalType": "address",
          "name": "previousOwner",
          "type": "address"
        },
        {
          "indexed": true,
          "internalType": "address",
          "name": "newOwner",
          "type": "address"
        }
      ],
      "name": "OwnershipTransferred",
      "type": "event"
    },
    {
      "anonymous": false,
      "inputs": [
        {
          "indexed": true,
          "internalType": "address",
          "name": "userAddress",
          "type": "address"
        },
        {
          "indexed": false,
          "internalType": "uint256",
          "name": "id",
          "type": "uint256"
        },
        {
          "indexed": false,
          "internalType": "string",
          "name": "name",
          "type": "string"
        },
        {
          "indexed": false,
          "internalType": "string",
          "name": "email",
          "type": "string"
        },
        {
          "indexed": false,
          "internalType": "uint256",
          "name": "createdAt",
          "type": "uint256"
        }
      ],
      "name": "UserCreated",
      "type": "event"
    },
    {
      "anonymous": false,
      "inputs": [
        {
          "indexed": true,
          "internalType": "address",
          "name": "userAddress",
          "type": "address"
        },
        {
          "indexed": false,
          "internalType": "uint256",
          "name": "id",
          "type": "uint256"
        }
      ],
      "name": "UserDeleted",
      "type": "event"
    },
    {
      "anonymous": false,
      "inputs": [
        {
          "indexed": true,
          "internalType": "address",
          "name": "userAddress",
          "type": "address"
        },
        {
          "indexed": false,
          "internalType": "string",
          "name": "name",
          "type": "string"
        },
        {
          "indexed": false,
          "internalType": "string",
          "name": "email",
          "type": "string"
        }
      ],
      "name": "UserUpdated",
      "type": "event"
    },
    {
      "inputs": [
        {
          "internalType": "address",
          "name": "_userAddress",
          "type": "address"
        }
      ],
      "name": "adminDeleteUser",
      "outputs": [],
      "stateMutability": "nonpayable",
      "type": "function"
    },
    {
      "inputs": [
        {
          "internalType": "string",
          "name": "_name",
          "type": "string"
        },
        {
          "internalType": "string",
          "name": "_email",
          "type": "string"
        }
      ],
      "name": "createUser",
      "outputs": [],
      "stateMutability": "nonpayable",
      "type": "function"
    },
    {
      "inputs": [],
      "name": "deleteUser",
      "outputs": [],
      "stateMutability": "nonpayable",
      "type": "function"
    },
    {
      "inputs": [],
      "name": "getAllUsers",
      "outputs": [
        {
          "components": [
            {
              "internalType": "uint256",
              "name": "id",
              "type": "uint256"
            },
            {
              "internalType": "string",
              "name": "name",
              "type": "string"
            },
            {
              "internalType": "string",
              "name": "email",
              "type": "string"
            },
            {
              "internalType": "uint256",
              "name": "createdAt",
              "type": "uint256"
            }
          ],
          "internalType": "struct UserManagement.UserData[]",
          "name": "",
          "type": "tuple[]"
        }
      ],
      "stateMutability": "view",
      "type": "function"
    },
    {
      "inputs": [
        {
          "internalType": "address",
          "name": "_userAddress",
          "type": "address"
        }
      ],
      "name": "getUser",
      "outputs": [
        {
          "components": [
            {
              "internalType": "uint256",
              "name": "id",
              "type": "uint256"
            },
            {
              "internalType": "string",
              "name": "name",
              "type": "string"
            },
            {
              "internalType": "string",
              "name": "email",
              "type": "string"
            },
            {
              "internalType": "uint256",
              "name": "createdAt",
              "type": "uint256"
            }
          ],
          "internalType": "struct UserManagement.UserData",
          "name": "",
          "type": "tuple"
        }
      ],
      "stateMutability": "view",
      "type": "function"
    },
    {
      "inputs": [
        {
          "internalType": "address",
          "name": "_userAddress",
          "type": "address"
        }
      ],
      "name": "isUserRegistered",
      "outputs": [
        {
          "internalType": "bool",
          "name": "",
          "type": "bool"
        }
      ],
      "stateMutability": "view",
      "type": "function"
    },
    {
      "inputs": [],
      "name": "owner",
      "outputs": [
        {
          "internalType": "address",
          "name": "",
          "type": "address"
        }
      ],
      "stateMutability": "view",
      "type": "function"
    },
    {
      "inputs": [],
      "name": "renounceOwnership",
      "outputs": [],
      "stateMutability": "nonpayable",
      "type": "function"
    },
    {
      "inputs": [
        {
          "internalType": "address",
          "name": "newOwner",
          "type": "address"
        }
      ],
      "name": "transferOwnership",
      "outputs": [],
      "stateMutability": "nonpayable",
      "type": "function"
    },
    {
      "inputs": [
        {
          "internalType": "string",
          "name": "_name",
          "type": "string"
        },
        {
          "internalType": "string",
          "name": "_email",
          "type": "string"
        }
      ],
      "name": "updateUser",
      "outputs": [],
      "stateMutability": "nonpayable",
      "type": "function"
    }
  ],
  "bytecode": "0x6080604052600160055534801561001557600080fd5b50338061003c57604051631e4fbdf760e01b81526000600482015260240160405180910390fd5b6100458161006f565b5060017f9b779b17422d0df92223018b32b4d1fa46e071723d6817e2486d003becc55f00556100bf565b600080546001600160a01b038381166001600160a01b0319831681178455604051919092169283917f8be0079c531659141344cd1fd0a4f28419497f9722a3daafe3b4186f6b6457e09190a35050565b61147d806100ce6000396000f3fe608060405234801561001057600080fd5b506004361061009e5760003560e01c80638da5cb5b116100665780638da5cb5b146101295780638fd58a7d14610144578063dd4a242514610157578063e2842d791461016a578063f2fde38b1461017f57600080fd5b8063026ff05e146100a3578063163f7522146100ad5780636f77926b146100ee578063715018a61461010e57806387b162b514610116575b600080fd5b6100ab610192565b005b6100d96100bb366004610df0565b6001600160a01b031660009081526002602052604090205460ff1690565b60405190151581526020015b60405180910390f35b6101016100fc366004610df0565b61035a565b6040516100e59190610eb5565b6100ab61051d565b6100ab610124366004610f11565b61052f565b6000546040516001600160a01b0390911681526020016100e5565b6100ab610152366004610df0565b610793565b6100ab610165366004610f11565b610960565b610172610a41565b6040516100e59190610f7d565b6100ab61018d366004610df0565b610c9b565b3360009081526002602052604090205460ff166101ca5760405162461bcd60e51b81526004016101c190610fdf565b60405180910390fd5b6101d2610cd9565b336000908152600160208190526040822080548382559290916101f790830182610da2565b610205600283016000610da2565b5060006003918201819055338152600260209081526040808320805460ff191690556004909152812054915461023d9060019061103e565b9050808210156102c65760006003828154811061025c5761025c611057565b600091825260209091200154600380546001600160a01b03909216925082918590811061028b5761028b611057565b600091825260208083209190910180546001600160a01b0319166001600160a01b039485161790559290911681526004909152604090208290555b60038054806102d7576102d761106d565b60008281526020808220600019908401810180546001600160a01b0319169055909201909255338083526004825260408084209390935591518581527fde5d01a9e3db449330a6770ec433f2fd5839fab3ed1f1cfc1ed992bdfa7e6f3c910160405180910390a2505050610358600160008051602061142883398151915255565b565b6103856040518060800160405280600081526020016060815260200160608152602001600081525090565b6001600160a01b03821660009081526002602052604090205460ff166103bd5760405162461bcd60e51b81526004016101c190611083565b6001600160a01b038216600090815260016020818152604092839020835160808101909452805484529182018054918401916103f8906110c7565b80601f0160208091040260200160405190810160405280929190818152602001828054610424906110c7565b80156104715780601f1061044657610100808354040283529160200191610471565b820191906000526020600020905b81548152906001019060200180831161045457829003601f168201915b5050505050815260200160028201805461048a906110c7565b80601f01602080910402602001604051908101604052809291908181526020018280546104b6906110c7565b80156105035780601f106104d857610100808354040283529160200191610503565b820191906000526020600020905b8154815290600101906020018083116104e657829003601f168201915b505050505081526020016003820154815250509050919050565b610525610cf5565b6103586000610d22565b3360009081526002602052604090205460ff16156105a55760405162461bcd60e51b815260206004820152602d60248201527f55736572204d616e6167656d656e743a2053656e64657220697320616c72656160448201526c191e481c9959da5cdd195c9959609a1b60648201526084016101c1565b6105ad610cd9565b826105ca5760405162461bcd60e51b81526004016101c190611101565b806105e75760405162461bcd60e51b81526004016101c190611146565b60058054600091826105f88361118c565b919050559050604051806080016040528082815260200186868080601f016020809104026020016040519081016040528093929190818152602001838380828437600092019190915250505090825250604080516020601f870181900481028201810190925285815291810191908690869081908401838280828437600092018290525093855250504260209384015250338152600180835260409091208351815591830151908201906106ac908261120a565b50604082015160028201906106c1908261120a565b5060609190910151600391820155805433600081815260046020908152604080832085905560018086019096557fc2575a0e9e593c00f959f8c92f12db2869c3395a3b0502d05e2516446f71f85b90940180546001600160a01b0319168417905560029052829020805460ff1916909317909255517f1c4c1396d67c30678106d63ba59a0d67a7f767aa63912c564f5f6ceccb2341f79061076d908490899089908990899042906112f3565b60405180910390a25061078d600160008051602061142883398151915255565b50505050565b61079b610cf5565b6001600160a01b03811660009081526002602052604090205460ff166107d35760405162461bcd60e51b81526004016101c190611083565b6001600160a01b03811660009081526001602081905260408220805483825592909161080190830182610da2565b61080f600283016000610da2565b50600060039182018190556001600160a01b0384168152600260209081526040808320805460ff19169055600490915281205491546108509060019061103e565b9050808210156108d95760006003828154811061086f5761086f611057565b600091825260209091200154600380546001600160a01b03909216925082918590811061089e5761089e611057565b600091825260208083209190910180546001600160a01b0319166001600160a01b039485161790559290911681526004909152604090208290555b60038054806108ea576108ea61106d565b60008281526020808220600019908401810180546001600160a01b03191690559092019092556001600160a01b0386168083526004825260408084209390935591518581527fde5d01a9e3db449330a6770ec433f2fd5839fab3ed1f1cfc1ed992bdfa7e6f3c910160405180910390a250505050565b3360009081526002602052604090205460ff1661098f5760405162461bcd60e51b81526004016101c190610fdf565b610997610cd9565b826109b45760405162461bcd60e51b81526004016101c190611101565b806109d15760405162461bcd60e51b81526004016101c190611146565b3360009081526001602081905260409091209081016109f1858783611334565b5060028101610a01838583611334565b50336001600160a01b03167fe5d18d6612696bff7df1db8015eac613241613297fa2ba2783993e4fd0e76f3d8686868660405161076d94939291906113f5565b60035460609060008167ffffffffffffffff811115610a6257610a626111a5565b604051908082528060200260200182016040528015610abe57816020015b610aab6040518060800160405280600081526020016060815260200160608152602001600081525090565b815260200190600190039081610a805790505b50905060005b82811015610c94576001600060038381548110610ae357610ae3611057565b9060005260206000200160009054906101000a90046001600160a01b03166001600160a01b03166001600160a01b0316815260200190815260200160002060405180608001604052908160008201548152602001600182018054610b46906110c7565b80601f0160208091040260200160405190810160405280929190818152602001828054610b72906110c7565b8015610bbf5780601f10610b9457610100808354040283529160200191610bbf565b820191906000526020600020905b815481529060010190602001808311610ba257829003601f168201915b50505050508152602001600282018054610bd8906110c7565b80601f0160208091040260200160405190810160405280929190818152602001828054610c04906110c7565b8015610c515780601f10610c2657610100808354040283529160200191610c51565b820191906000526020600020905b815481529060010190602001808311610c3457829003601f168201915b50505050508152602001600382015481525050828281518110610c7657610c76611057565b60200260200101819052508080610c8c9061118c565b915050610ac4565b5092915050565b610ca3610cf5565b6001600160a01b038116610ccd57604051631e4fbdf760e01b8152600060048201526024016101c1565b610cd681610d22565b50565b610ce1610d72565b600260008051602061142883398151915255565b6000546001600160a01b031633146103585760405163118cdaa760e01b81523360048201526024016101c1565b600080546001600160a01b038381166001600160a01b0319831681178455604051919092169283917f8be0079c531659141344cd1fd0a4f28419497f9722a3daafe3b4186f6b6457e09190a35050565b6000805160206114288339815191525460020361035857604051633ee5aeb560e01b815260040160405180910390fd5b508054610dae906110c7565b6000825580601f10610dbe575050565b601f016020900490600052602060002090810190610cd691905b80821115610dec5760008155600101610dd8565b5090565b600060208284031215610e0257600080fd5b81356001600160a01b0381168114610e1957600080fd5b9392505050565b6000815180845260005b81811015610e4657602081850181015186830182015201610e2a565b506000602082860101526020601f19601f83011685010191505092915050565b805182526000602082015160806020850152610e856080850182610e20565b905060408301518482036040860152610e9e8282610e20565b915050606083015160608501528091505092915050565b602081526000610e196020830184610e66565b60008083601f840112610eda57600080fd5b50813567ffffffffffffffff811115610ef257600080fd5b602083019150836020828501011115610f0a57600080fd5b9250929050565b60008060008060408587031215610f2757600080fd5b843567ffffffffffffffff80821115610f3f57600080fd5b610f4b88838901610ec8565b90965094506020870135915080821115610f6457600080fd5b50610f7187828801610ec8565b95989497509550505050565b6000602080830181845280855180835260408601915060408160051b870101925083870160005b82811015610fd257603f19888603018452610fc0858351610e66565b94509285019290850190600101610fa4565b5092979650505050505050565b60208082526029908201527f55736572204d616e6167656d656e743a2053656e646572206973206e6f7420726040820152681959da5cdd195c995960ba1b606082015260800190565b634e487b7160e01b600052601160045260246000fd5b8181038181111561105157611051611028565b92915050565b634e487b7160e01b600052603260045260246000fd5b634e487b7160e01b600052603160045260246000fd5b60208082526024908201527f55736572204d616e6167656d656e743a205573657220646f6573206e6f7420656040820152631e1a5cdd60e21b606082015260800190565b600181811c908216806110db57607f821691505b6020821081036110fb57634e487b7160e01b600052602260045260246000fd5b50919050565b60208082526025908201527f55736572204d616e6167656d656e743a204e616d652063616e6e6f7420626520604082015264656d70747960d81b606082015260800190565b60208082526026908201527f55736572204d616e6167656d656e743a20456d61696c2063616e6e6f7420626560408201526520656d70747960d01b606082015260800190565b60006001820161119e5761119e611028565b5060010190565b634e487b7160e01b600052604160045260246000fd5b601f82111561120557600081815260208120601f850160051c810160208610156111e25750805b601f850160051c820191505b81811015611201578281556001016111ee565b5050505b505050565b815167ffffffffffffffff811115611224576112246111a5565b6112388161123284546110c7565b846111bb565b602080601f83116001811461126d57600084156112555750858301515b600019600386901b1c1916600185901b178555611201565b600085815260208120601f198616915b8281101561129c5788860151825594840194600190910190840161127d565b50858210156112ba5787850151600019600388901b60f8161c191681555b5050505050600190811b01905550565b81835281816020850137506000828201602090810191909152601f909101601f19169091010190565b86815260806020820152600061130d6080830187896112ca565b82810360408401526113208186886112ca565b915050826060830152979650505050505050565b67ffffffffffffffff83111561134c5761134c6111a5565b6113608361135a83546110c7565b836111bb565b6000601f841160018114611394576000851561137c5750838201355b600019600387901b1c1916600186901b1783556113ee565b600083815260209020601f19861690835b828110156113c557868501358255602094850194600190920191016113a5565b50868210156113e25760001960f88860031b161c19848701351681555b505060018560011b0183555b5050505050565b6040815260006114096040830186886112ca565b828103602084015261141c8185876112ca565b97965050505050505056fe9b779b17422d0df92223018b32b4d1fa46e071723d6817e2486d003becc55f00a2646970667358221220f824751f148b56b4c243910fc3cf5493799703b35945774ab02d7e9a75cfdc7364736f6c63430008140033",
  "linkReferences": {},
  "deployedLinkReferences": {}
}