{
  "_format": "hh-sol-artifact-1",
  "contractName": "Staking",
  "sourceName": "contracts/Staking.sol",
  "abi": [
    {
      "inputs": [
        {
          "internalType": "address",
          "name": "tokenAddress",
          "type": "address"
        }
      ],
      "stateMutability": "nonpayable",
      "type": "constructor"
    },
    {
      "anonymous": false,
      "inputs": [
        {
          "indexed": true,
          "internalType": "address",
          "name": "user",
          "type": "address"
        },
        {
          "indexed": false,
          "internalType": "uint256",
          "name": "amount",
          "type": "uint256"
        }
      ],
      "name": "RewardsClaimed",
      "type": "event"
    },
    {
      "anonymous": false,
      "inputs": [
        {
          "indexed": true,
          "internalType": "address",
          "name": "user",
          "type": "address"
        },
        {
          "indexed": false,
          "internalType": "uint256",
          "name": "amount",
          "type": "uint256"
        }
      ],
      "name": "Staked",
      "type": "event"
    },
    {
      "anonymous": false,
      "inputs": [
        {
          "indexed": true,
          "internalType": "address",
          "name": "user",
          "type": "address"
        },
        {
          "indexed": false,
          "internalType": "uint256",
          "name": "amount",
          "type": "uint256"
        }
      ],
      "name": "Unstaked",
      "type": "event"
    },
    {
      "inputs": [],
      "name": "APR_RATE",
      "outputs": [
        {
          "internalType": "uint256",
          "name": "",
          "type": "uint256"
        }
      ],
      "stateMutability": "view",
      "type": "function"
    },
    {
      "inputs": [],
      "name": "MIN_STAKE_AMOUNT",
      "outputs": [
        {
          "internalType": "uint256",
          "name": "",
          "type": "uint256"
        }
      ],
      "stateMutability": "view",
      "type": "function"
    },
    {
      "inputs": [],
      "name": "SECONDS_IN_YEAR",
      "outputs": [
        {
          "internalType": "uint256",
          "name": "",
          "type": "uint256"
        }
      ],
      "stateMutability": "view",
      "type": "function"
    },
    {
      "inputs": [
        {
          "internalType": "address",
          "name": "user",
          "type": "address"
        }
      ],
      "name": "calculateRewards",
      "outputs": [
        {
          "internalType": "uint256",
          "name": "",
          "type": "uint256"
        }
      ],
      "stateMutability": "view",
      "type": "function"
    },
    {
      "inputs": [],
      "name": "claimRewards",
      "outputs": [],
      "stateMutability": "nonpayable",
      "type": "function"
    },
    {
      "inputs": [],
      "name": "getAPR",
      "outputs": [
        {
          "internalType": "uint256",
          "name": "",
          "type": "uint256"
        }
      ],
      "stateMutability": "pure",
      "type": "function"
    },
    {
      "inputs": [
        {
          "internalType": "address",
          "name": "user",
          "type": "address"
        }
      ],
      "name": "getStakeInfo",
      "outputs": [
        {
          "internalType": "uint256",
          "name": "stakedAmount",
          "type": "uint256"
        },
        {
          "internalType": "uint256",
          "name": "stakedAt",
          "type": "uint256"
        },
        {
          "internalType": "uint256",
          "name": "pendingRewards",
          "type": "uint256"
        },
        {
          "internalType": "uint256",
          "name": "totalRewards",
          "type": "uint256"
        }
      ],
      "stateMutability": "view",
      "type": "function"
    },
    {
      "inputs": [
        {
          "internalType": "uint256",
          "name": "amount",
          "type": "uint256"
        }
      ],
      "name": "stake",
      "outputs": [],
      "stateMutability": "nonpayable",
      "type": "function"
    },
    {
      "inputs": [
        {
          "internalType": "address",
          "name": "",
          "type": "address"
        }
      ],
      "name": "stakes",
      "outputs": [
        {
          "internalType": "uint256",
          "name": "amount",
          "type": "uint256"
        },
        {
          "internalType": "uint256",
          "name": "stakedAt",
          "type": "uint256"
        },
        {
          "internalType": "uint256",
          "name": "rewardDebt",
          "type": "uint256"
        }
      ],
      "stateMutability": "view",
      "type": "function"
    },
    {
      "inputs": [],
      "name": "token",
      "outputs": [
        {
          "internalType": "contract SmartToken",
          "name": "",
          "type": "address"
        }
      ],
      "stateMutability": "view",
      "type": "function"
    },
    {
      "inputs": [],
      "name": "totalStaked",
      "outputs": [
        {
          "internalType": "uint256",
          "name": "",
          "type": "uint256"
        }
      ],
      "stateMutability": "view",
      "type": "function"
    },
    {
      "inputs": [],
      "name": "unstake",
      "outputs": [],
      "stateMutability": "nonpayable",
      "type": "function"
    }
  ],
  "bytecode": "0x60a060405234801561001057600080fd5b50604051610bcd380380610bcd83398101604081905261002f91610040565b6001600160a01b0316608052610070565b60006020828403121561005257600080fd5b81516001600160a01b038116811461006957600080fd5b9392505050565b608051610b1f6100ae600039600081816101b8015281816102b9015281816103850152818161055c0152818161071901526108210152610b1f6000f3fe608060405234801561001057600080fd5b50600436106100b45760003560e01c806364ab86751161007157806364ab86751461014a578063817b1cd21461015d578063a694fc3a14610166578063c345315314610179578063c89d5b8b146101ac578063fc0c546a146101b357600080fd5b806316934fc4146100b957806327ed7188146101085780632d647842146101255780632def66201461012d578063372500ab146101375780635dcc93911461013f575b600080fd5b6100e86100c73660046109ea565b60006020819052908152604090208054600182015460029092015490919083565b604080519384526020840192909252908201526060015b60405180910390f35b610117678ac7230489e8000081565b6040519081526020016100ff565b610117600581565b6101356101f2565b005b61013561046f565b6101176301e1338081565b6101176101583660046109ea565b6105f0565b61011760015481565b610135610174366004610a1a565b61069e565b61018c6101873660046109ea565b610973565b6040805194855260208501939093529183015260608201526080016100ff565b6005610117565b6101da7f000000000000000000000000000000000000000000000000000000000000000081565b6040516001600160a01b0390911681526020016100ff565b336000908152602081905260409020805461024f5760405162461bcd60e51b81526020600482015260186024820152775374616b696e673a206e6f20616374697665207374616b6560401b60448201526064015b60405180910390fd5b80546002820154600090610262336105f0565b61026c9190610a49565b600080855560018086018290556002860182905580549293508492909190610295908490610a62565b909155505060405163a9059cbb60e01b8152336004820152602481018390526000907f00000000000000000000000000000000000000000000000000000000000000006001600160a01b03169063a9059cbb906044016020604051808303816000875af115801561030a573d6000803e3d6000fd5b505050506040513d601f19601f8201168201806040525081019061032e9190610a75565b90508061037d5760405162461bcd60e51b815260206004820152601c60248201527f5374616b696e673a20746f6b656e2072657475726e206661696c6564000000006044820152606401610246565b81156103f7577f00000000000000000000000000000000000000000000000000000000000000006001600160a01b031663de5f72fd6040518163ffffffff1660e01b8152600401600060405180830381600087803b1580156103de57600080fd5b505af11580156103f2573d6000803e3d6000fd5b505050505b60405183815233907f0f5bb82176feb1b5e747e28471aa92156a04d9f3ab9f45f28e2d704232b93f759060200160405180910390a281156104695760405182815233907ffc30cddea38e2bf4d6ea7d3f9ed3b6ad7f176419f4963bd81318067a4aee73fe906020015b60405180910390a25b50505050565b33600090815260208190526040902080546104c75760405162461bcd60e51b81526020600482015260186024820152775374616b696e673a206e6f20616374697665207374616b6560401b6044820152606401610246565b600081600201546104d7336105f0565b6104e19190610a49565b9050600081116105335760405162461bcd60e51b815260206004820152601c60248201527f5374616b696e673a206e6f207265776172647320746f20636c61696d000000006044820152606401610246565b6000600283018190554260018401556040805163de5f72fd60e01b815290516001600160a01b037f0000000000000000000000000000000000000000000000000000000000000000169263de5f72fd926004808201939182900301818387803b15801561059f57600080fd5b505af11580156105b3573d6000803e3d6000fd5b50506040518381523392507ffc30cddea38e2bf4d6ea7d3f9ed3b6ad7f176419f4963bd81318067a4aee73fe915060200160405180910390a25050565b6001600160a01b038116600090815260208181526040808320815160608101835281548082526001830154948201949094526002909101549181019190915290158061063e57506020810151155b1561064c5750600092915050565b600081602001514261065e9190610a62565b905060006106716301e133806064610a97565b8351839061068190600590610a97565b61068b9190610a97565b6106959190610aae565b95945050505050565b678ac7230489e800008110156107025760405162461bcd60e51b815260206004820152602360248201527f5374616b696e673a2062656c6f77206d696e696d756d207374616b6520616d6f6044820152621d5b9d60ea1b6064820152608401610246565b6040516370a0823160e01b815233600482015281907f00000000000000000000000000000000000000000000000000000000000000006001600160a01b0316906370a0823190602401602060405180830381865afa158015610768573d6000803e3d6000fd5b505050506040513d601f19601f8201168201806040525081019061078c9190610ad0565b10156107e65760405162461bcd60e51b815260206004820152602360248201527f5374616b696e673a20696e73756666696369656e7420746f6b656e2062616c616044820152626e636560e81b6064820152608401610246565b60006107f1336105f0565b6040516323b872dd60e01b8152336004820152306024820152604481018490529091506000906001600160a01b037f000000000000000000000000000000000000000000000000000000000000000016906323b872dd906064016020604051808303816000875af115801561086a573d6000803e3d6000fd5b505050506040513d601f19601f8201168201806040525081019061088e9190610a75565b9050806108dd5760405162461bcd60e51b815260206004820152601e60248201527f5374616b696e673a20746f6b656e207472616e73666572206661696c656400006044820152606401610246565b33600090815260208190526040812060028101805491928592610901908490610a49565b909155505080548490829060009061091a908490610a49565b92505081905550428160010181905550836001600082825461093c9190610a49565b909155505060405184815233907f9e71bc8eea02a63969f509818f2dafb9254532904319f9dbda79b67bd34a5f3d90602001610460565b6001600160a01b0381166000908152602081815260408083208151606081018352815481526001820154938101939093526002015490820152819081908190816109bc876105f0565b905081600001518260200151828460400151846109d99190610a49565b955095509550955050509193509193565b6000602082840312156109fc57600080fd5b81356001600160a01b0381168114610a1357600080fd5b9392505050565b600060208284031215610a2c57600080fd5b5035919050565b634e487b7160e01b600052601160045260246000fd5b80820180821115610a5c57610a5c610a33565b92915050565b81810381811115610a5c57610a5c610a33565b600060208284031215610a8757600080fd5b81518015158114610a1357600080fd5b8082028115828204841417610a5c57610a5c610a33565b600082610acb57634e487b7160e01b600052601260045260246000fd5b500490565b600060208284031215610ae257600080fd5b505191905056fea2646970667358221220e49bfbf4f3e5b020d29a3f6a6f04926d368b6e11df3ecc806d954a86a2d70ce764736f6c63430008140033",
  "linkReferences": {},
  "deployedLinkReferences": {}
}